:020000020000FC
:040000000C9422003A
:040034000C94AB007D
:100040000C94FF004FEF44BB58E05EBF5FE55DBF1F
:10005000A89AAB9A0E94B1010E94420006E40E9455
:100060007D0001E40E947D0003E50E947D0004E51F
:100070000E947D0000E00BBB0FE806B901EE07B956
:100080000C9440005FEF57BB03E30E9461000E94A5
:10009000990002E30E9461000E94990008E20E9418
:1000A00061000E9499000EE00E9461000E94990088
:1000B00001E00E9461000E94990006E00E94610038
:1000C0000895B02FB07FA8B3AF70AB2BA8BBC0987A
:1000D000C198C29A0E94A400C2980E949900B02FB1
:1000E000B295B07FA8B3AF70AB2BA8BBC29A0E94E9
:1000F000A400C2980E9499000895B02FB07FA8B3C1
:10010000AF70AB2BA8BBC09AC198C29A0E94A40042
:10011000C2980E949900B02FB295B07FA8B3AF707B
:10012000AB2BA8BBC29A0E94A400C2980E9499005F
:1001300008950F931F9304E614E61A95F1F70A95B4
:10014000D9F71F910F9108950000000000000000F2
:100150000000000008955F9B0C94AB000CB10E945E
:100160007D0044E5041729F403E50E94AC01369AAA
:10017000189540E3041711F4A89A189541E3041761
:1001800029F4A99A0DE40E94AC01189542E30417E2
:1001900029F4AA9A02E50E94AC01189543E30417DA
:1001A00011F4AB9A189544E3041711F4A898189524
:1001B00045E3041711F4A998189546E3041711F4C0
:1001C000AA98189547E3041711F4AB98189548E3DB
:1001D000041711F4A898189518954CEF53EF4DBDDE
:1001E0005CBD45E050E05FBD4EBD48B742FF0C949A
:1001F000F50040E04FBD4EBD44E048BF0895349A3D
:1002000005B10E940A010EE20E947D0003E40E94F3
:100210007D001895202F1AE0011730F40E949701F5
:1002200004910E947D00089514E10117B8F401E3E0
:100230000E94AC010E947D002A50203049F400E366
:100240000E94AC010E947D000EE40E94AC01089562
:100250000E94970104910E947D0008951EE10117FC
:10026000B8F402E30E94AC010E947D0024512030CA
:1002700049F400E30E94AC010E947D000EE40E945C
:10028000AC0108950E94970104910E947D00089599
:1002900018E20117B8F403E30E94AC010E947D004C
:1002A0002E51203049F400E30E94AC010E947D00F1
:1002B0000EE40E94AC0108950E94970104910E94EF
:1002C0007D00089512E30117B8F404E30E94AC0125
:1002D0000E947D002852203049F400E30E94AC01C6
:1002E0000E947D000EE40E94AC0108950E949701D7
:1002F00004910E947D0008951CE30117B8F405E302
:100300000E94AC010E947D002253203049F400E39A
:100310000E94AC010E947D000EE40E94AC01089591
:100320000E94970104910E947D0008950895F3E0D2
:10033000EEE401E0201739F404910E94AC010EE4D0
:100340000E94AC010895E3952A950C949A013132EC
:1003500033343536373839005D9B0C94AC010CB919
:10036000089508E90AB906E800BD789403E309B9DD
:020370000895EE
:00000001FF
