:020000020000FC
:080000000C941C000C943B0061
:100034000C94030448E04EBF4FE54DBF0E94FB0300
:100044000E946A031FE017BB32E1C0E060E021E0D8
:10005400D0E0C0E080E090E05FEF5ABB40EF44BBEB
:100064004FE045BB40E245BF929A40E44BBF7894D1
:10007400FFCF0E9463030E943D030E94D3030E94AA
:10008400D3030E94D3030E94D3034491042F0E94FC
:10009400A503613051F44883C3957395733011F40B
:1000A4000E9485000E9460031895033211F40E9497
:1000B400D400013379F401E00E948903FAE0E0E21C
:1000C4000E94340300EC0E94890361E070E00E9406
:1000D400600318950A32A1F401E00E948903FAE052
:1000E400EAE30E94340300EC0E9489030E942A047C
:1000F40004E50E9425040E94FB030E9460031895F6
:100104000E9460031895CA95DD9A8881F6E0ECE0B8
:1001140094918917D9F40E94CE008917B9F40E94EA
:10012400CE00891799F401E00E948903F6E0E0E12A
:100134000E94340300EC0E948903F6E0ECE10E9483
:10014400340360E021E00E94E5030895233099F42C
:1001540001E00E948903F6E0E4E30E94340300EC2A
:100164000E948903F6E0E6E40E9434030E94CA0078
:1001740021E00C94BB00239501E00E948903F6E082
:10018400E6E20E94340300EC0E94890370E00895C3
:10019400C69A0E94FB030895CA95E39588819491B9
:1001A4009BBB0895C1E031E001E00E948903FAE0BD
:1001B400E0E00E94340300EC0E948903FAE0EEE0E0
:0601C4000E9434030895BF
:100A0000454E543120465220504153530000454E2C
:100A1000543220465220434847205041535300004F
:100A2000454E54455220504153530000454E5420EA
:100A30004348472050415353000054656D70657220
:080A400061747572650030312C
:100600003134372A323538303336392333323100FA
:1006100057454C434F4D452121210000454E472071
:100620004F53414D4100534F52525920454E542093
:1006300041474E00212D212A57486F204152452025
:10064000794F5521210021424348414F2043484FD3
:1006500052004F935F935FEF4FEF4A95F1F75A9532
:10066000D9F75F914F9108954491403029F0042FBC
:100670000E94A503E395F8CF08955FEB55BB0000FA
:1006800053B35F705F3071F45FED55BB000053B33F
:100690005F705F3051F45FEE55BB000053B35F7085
:1006A0005F3031F4E0E0F6E006C0E4E0F6E003C0DD
:1006B000E8E0F6E000C0569510F44591FCCF0895AF
:1006C0004FE045BB0895313021F401E030E00E9455
:1006D000890308955FEF5ABB03E30E9489030E94D8
:1006E000C10302E30E9489030E94C10308E20E9441
:1006F00089030E94C1030EE00E9489030E94C10386
:1007000001E00E9489030E94C10306E00E94890360
:100710000895B02FB07FABB3AF70AB2BABBBD89805
:10072000D998DA9A0E94CC03DA980E94C103B02FBC
:10073000B295B07FABB3AF70AB2BABBBDA9A0E9474
:10074000CC03DA980E94C1030895B02FB07FABB3F9
:10075000AF70AB2BABBBD89AD998DA9A0E94CC0376
:10076000DA980E94C103B02FB295B07FABB3AF70DF
:10077000AB2BABBBDA9A0E94CC03DA980E94C10380
:1007800008950F931F9304E614E61A95F1F70A955E
:10079000D9F71F910F91089500000000000000009C
:1007A0000000000008954CEF53EF4DBD5CBD45E0E7
:1007B00050E05FBD4EBD48B742FF0C94DB0340E004
:1007C0004FBD4EBD44E048BF089519E030E03032DF
:1007D00009F4089518BB169510F4186033950E941B
:1007E000D3030E94D3030E94D3030E94D3030E9429
:1007F000D3030C94E70300E90AB906E800BD789436
:1008000003E309B908955F9B0C9403040CB103350D
:1008100019F4E0E0C59A18950E3441F4E1E30EE2D4
:100820000E94A50303E40E94A5031895E03019F483
:100830000E94A50318950D3419F40E94E50318953C
:10084000023511F4C698189518955D9B0C942504F3
:100850000CB9089508E90AB906E800BD789403E3E5
:0408600009B9089535
:00000001FF
